{
  "contractName": "UniVerse",
  "abi": [
    {
      "inputs": [
        {
          "internalType": "string",
          "name": "baseURI",
          "type": "string"
        }
      ],
      "stateMutability": "nonpayable",
      "type": "constructor"
    },
    {
      "anonymous": false,
      "inputs": [
        {
          "indexed": true,
          "internalType": "address",
          "name": "owner",
          "type": "address"
        },
        {
          "indexed": true,
          "internalType": "address",
          "name": "approved",
          "type": "address"
        },
        {
          "indexed": true,
          "internalType": "uint256",
          "name": "tokenId",
          "type": "uint256"
        }
      ],
      "name": "Approval",
      "type": "event"
    },
    {
      "anonymous": false,
      "inputs": [
        {
          "indexed": true,
          "internalType": "address",
          "name": "owner",
          "type": "address"
        },
        {
          "indexed": true,
          "internalType": "address",
          "name": "operator",
          "type": "address"
        },
        {
          "indexed": false,
          "internalType": "bool",
          "name": "approved",
          "type": "bool"
        }
      ],
      "name": "ApprovalForAll",
      "type": "event"
    },
    {
      "anonymous": false,
      "inputs": [
        {
          "indexed": true,
          "internalType": "uint256",
          "name": "id",
          "type": "uint256"
        }
      ],
      "name": "CreateUniverse",
      "type": "event"
    },
    {
      "anonymous": false,
      "inputs": [
        {
          "indexed": true,
          "internalType": "address",
          "name": "previousOwner",
          "type": "address"
        },
        {
          "indexed": true,
          "internalType": "address",
          "name": "newOwner",
          "type": "address"
        }
      ],
      "name": "OwnershipTransferred",
      "type": "event"
    },
    {
      "anonymous": false,
      "inputs": [
        {
          "indexed": false,
          "internalType": "address",
          "name": "account",
          "type": "address"
        }
      ],
      "name": "Paused",
      "type": "event"
    },
    {
      "anonymous": false,
      "inputs": [
        {
          "indexed": true,
          "internalType": "address",
          "name": "from",
          "type": "address"
        },
        {
          "indexed": true,
          "internalType": "address",
          "name": "to",
          "type": "address"
        },
        {
          "indexed": true,
          "internalType": "uint256",
          "name": "tokenId",
          "type": "uint256"
        }
      ],
      "name": "Transfer",
      "type": "event"
    },
    {
      "anonymous": false,
      "inputs": [
        {
          "indexed": false,
          "internalType": "address",
          "name": "account",
          "type": "address"
        }
      ],
      "name": "Unpaused",
      "type": "event"
    },
    {
      "inputs": [],
      "name": "MAX_BY_MINT",
      "outputs": [
        {
          "internalType": "uint256",
          "name": "",
          "type": "uint256"
        }
      ],
      "stateMutability": "view",
      "type": "function",
      "constant": true
    },
    {
      "inputs": [],
      "name": "MAX_BY_OWNER",
      "outputs": [
        {
          "internalType": "uint256",
          "name": "",
          "type": "uint256"
        }
      ],
      "stateMutability": "view",
      "type": "function",
      "constant": true
    },
    {
      "inputs": [],
      "name": "MAX_ELEMENTS",
      "outputs": [
        {
          "internalType": "uint256",
          "name": "",
          "type": "uint256"
        }
      ],
      "stateMutability": "view",
      "type": "function",
      "constant": true
    },
    {
      "inputs": [],
      "name": "PRICE",
      "outputs": [
        {
          "internalType": "uint256",
          "name": "",
          "type": "uint256"
        }
      ],
      "stateMutability": "view",
      "type": "function",
      "constant": true
    },
    {
      "inputs": [
        {
          "internalType": "uint256",
          "name": "",
          "type": "uint256"
        }
      ],
      "name": "_whitedList",
      "outputs": [
        {
          "internalType": "address",
          "name": "",
          "type": "address"
        }
      ],
      "stateMutability": "view",
      "type": "function",
      "constant": true
    },
    {
      "inputs": [
        {
          "internalType": "address",
          "name": "to",
          "type": "address"
        },
        {
          "internalType": "uint256",
          "name": "tokenId",
          "type": "uint256"
        }
      ],
      "name": "approve",
      "outputs": [],
      "stateMutability": "nonpayable",
      "type": "function"
    },
    {
      "inputs": [
        {
          "internalType": "address",
          "name": "owner",
          "type": "address"
        }
      ],
      "name": "balanceOf",
      "outputs": [
        {
          "internalType": "uint256",
          "name": "",
          "type": "uint256"
        }
      ],
      "stateMutability": "view",
      "type": "function",
      "constant": true
    },
    {
      "inputs": [],
      "name": "baseTokenURI",
      "outputs": [
        {
          "internalType": "string",
          "name": "",
          "type": "string"
        }
      ],
      "stateMutability": "view",
      "type": "function",
      "constant": true
    },
    {
      "inputs": [
        {
          "internalType": "uint256",
          "name": "tokenId",
          "type": "uint256"
        }
      ],
      "name": "burn",
      "outputs": [],
      "stateMutability": "nonpayable",
      "type": "function"
    },
    {
      "inputs": [],
      "name": "creatorAddress",
      "outputs": [
        {
          "internalType": "address",
          "name": "",
          "type": "address"
        }
      ],
      "stateMutability": "view",
      "type": "function",
      "constant": true
    },
    {
      "inputs": [],
      "name": "devAddress",
      "outputs": [
        {
          "internalType": "address",
          "name": "",
          "type": "address"
        }
      ],
      "stateMutability": "view",
      "type": "function",
      "constant": true
    },
    {
      "inputs": [
        {
          "internalType": "uint256",
          "name": "tokenId",
          "type": "uint256"
        }
      ],
      "name": "getApproved",
      "outputs": [
        {
          "internalType": "address",
          "name": "",
          "type": "address"
        }
      ],
      "stateMutability": "view",
      "type": "function",
      "constant": true
    },
    {
      "inputs": [
        {
          "internalType": "address",
          "name": "owner",
          "type": "address"
        },
        {
          "internalType": "address",
          "name": "operator",
          "type": "address"
        }
      ],
      "name": "isApprovedForAll",
      "outputs": [
        {
          "internalType": "bool",
          "name": "",
          "type": "bool"
        }
      ],
      "stateMutability": "view",
      "type": "function",
      "constant": true
    },
    {
      "inputs": [],
      "name": "name",
      "outputs": [
        {
          "internalType": "string",
          "name": "",
          "type": "string"
        }
      ],
      "stateMutability": "view",
      "type": "function",
      "constant": true
    },
    {
      "inputs": [],
      "name": "owner",
      "outputs": [
        {
          "internalType": "address",
          "name": "",
          "type": "address"
        }
      ],
      "stateMutability": "view",
      "type": "function",
      "constant": true
    },
    {
      "inputs": [
        {
          "internalType": "uint256",
          "name": "tokenId",
          "type": "uint256"
        }
      ],
      "name": "ownerOf",
      "outputs": [
        {
          "internalType": "address",
          "name": "",
          "type": "address"
        }
      ],
      "stateMutability": "view",
      "type": "function",
      "constant": true
    },
    {
      "inputs": [],
      "name": "paused",
      "outputs": [
        {
          "internalType": "bool",
          "name": "",
          "type": "bool"
        }
      ],
      "stateMutability": "view",
      "type": "function",
      "constant": true
    },
    {
      "inputs": [],
      "name": "renounceOwnership",
      "outputs": [],
      "stateMutability": "nonpayable",
      "type": "function"
    },
    {
      "inputs": [
        {
          "internalType": "address",
          "name": "from",
          "type": "address"
        },
        {
          "internalType": "address",
          "name": "to",
          "type": "address"
        },
        {
          "internalType": "uint256",
          "name": "tokenId",
          "type": "uint256"
        }
      ],
      "name": "safeTransferFrom",
      "outputs": [],
      "stateMutability": "nonpayable",
      "type": "function"
    },
    {
      "inputs": [
        {
          "internalType": "address",
          "name": "from",
          "type": "address"
        },
        {
          "internalType": "address",
          "name": "to",
          "type": "address"
        },
        {
          "internalType": "uint256",
          "name": "tokenId",
          "type": "uint256"
        },
        {
          "internalType": "bytes",
          "name": "_data",
          "type": "bytes"
        }
      ],
      "name": "safeTransferFrom",
      "outputs": [],
      "stateMutability": "nonpayable",
      "type": "function"
    },
    {
      "inputs": [
        {
          "internalType": "address",
          "name": "operator",
          "type": "address"
        },
        {
          "internalType": "bool",
          "name": "approved",
          "type": "bool"
        }
      ],
      "name": "setApprovalForAll",
      "outputs": [],
      "stateMutability": "nonpayable",
      "type": "function"
    },
    {
      "inputs": [],
      "name": "symbol",
      "outputs": [
        {
          "internalType": "string",
          "name": "",
          "type": "string"
        }
      ],
      "stateMutability": "view",
      "type": "function",
      "constant": true
    },
    {
      "inputs": [
        {
          "internalType": "uint256",
          "name": "index",
          "type": "uint256"
        }
      ],
      "name": "tokenByIndex",
      "outputs": [
        {
          "internalType": "uint256",
          "name": "",
          "type": "uint256"
        }
      ],
      "stateMutability": "view",
      "type": "function",
      "constant": true
    },
    {
      "inputs": [
        {
          "internalType": "address",
          "name": "owner",
          "type": "address"
        },
        {
          "internalType": "uint256",
          "name": "index",
          "type": "uint256"
        }
      ],
      "name": "tokenOfOwnerByIndex",
      "outputs": [
        {
          "internalType": "uint256",
          "name": "",
          "type": "uint256"
        }
      ],
      "stateMutability": "view",
      "type": "function",
      "constant": true
    },
    {
      "inputs": [
        {
          "internalType": "uint256",
          "name": "tokenId",
          "type": "uint256"
        }
      ],
      "name": "tokenURI",
      "outputs": [
        {
          "internalType": "string",
          "name": "",
          "type": "string"
        }
      ],
      "stateMutability": "view",
      "type": "function",
      "constant": true
    },
    {
      "inputs": [],
      "name": "totalSupply",
      "outputs": [
        {
          "internalType": "uint256",
          "name": "",
          "type": "uint256"
        }
      ],
      "stateMutability": "view",
      "type": "function",
      "constant": true
    },
    {
      "inputs": [
        {
          "internalType": "address",
          "name": "from",
          "type": "address"
        },
        {
          "internalType": "address",
          "name": "to",
          "type": "address"
        },
        {
          "internalType": "uint256",
          "name": "tokenId",
          "type": "uint256"
        }
      ],
      "name": "transferFrom",
      "outputs": [],
      "stateMutability": "nonpayable",
      "type": "function"
    },
    {
      "inputs": [
        {
          "internalType": "address",
          "name": "newOwner",
          "type": "address"
        }
      ],
      "name": "transferOwnership",
      "outputs": [],
      "stateMutability": "nonpayable",
      "type": "function"
    },
    {
      "inputs": [
        {
          "internalType": "address",
          "name": "someone",
          "type": "address"
        }
      ],
      "name": "isWhitedList",
      "outputs": [
        {
          "internalType": "bool",
          "name": "",
          "type": "bool"
        }
      ],
      "stateMutability": "view",
      "type": "function",
      "constant": true
    },
    {
      "inputs": [
        {
          "internalType": "address[]",
          "name": "row",
          "type": "address[]"
        }
      ],
      "name": "setWhitedList",
      "outputs": [],
      "stateMutability": "payable",
      "type": "function",
      "payable": true
    },
    {
      "inputs": [],
      "name": "removeWhiteList",
      "outputs": [
        {
          "internalType": "bool",
          "name": "",
          "type": "bool"
        }
      ],
      "stateMutability": "payable",
      "type": "function",
      "payable": true
    },
    {
      "inputs": [],
      "name": "totalMint",
      "outputs": [
        {
          "internalType": "uint256",
          "name": "",
          "type": "uint256"
        }
      ],
      "stateMutability": "view",
      "type": "function",
      "constant": true
    },
    {
      "inputs": [
        {
          "internalType": "address",
          "name": "_to",
          "type": "address"
        }
      ],
      "name": "mint",
      "outputs": [],
      "stateMutability": "payable",
      "type": "function",
      "payable": true
    },
    {
      "inputs": [
        {
          "internalType": "uint256",
          "name": "_count",
          "type": "uint256"
        }
      ],
      "name": "price",
      "outputs": [
        {
          "internalType": "uint256",
          "name": "",
          "type": "uint256"
        }
      ],
      "stateMutability": "pure",
      "type": "function",
      "constant": true
    },
    {
      "inputs": [
        {
          "internalType": "string",
          "name": "baseURI",
          "type": "string"
        }
      ],
      "name": "setBaseURI",
      "outputs": [],
      "stateMutability": "nonpayable",
      "type": "function"
    },
    {
      "inputs": [
        {
          "internalType": "address",
          "name": "_owner",
          "type": "address"
        }
      ],
      "name": "walletOfOwner",
      "outputs": [
        {
          "internalType": "uint256[]",
          "name": "",
          "type": "uint256[]"
        }
      ],
      "stateMutability": "view",
      "type": "function",
      "constant": true
    },
    {
      "inputs": [
        {
          "internalType": "bool",
          "name": "val",
          "type": "bool"
        }
      ],
      "name": "pause",
      "outputs": [],
      "stateMutability": "nonpayable",
      "type": "function"
    },
    {
      "inputs": [],
      "name": "withdrawAll",
      "outputs": [],
      "stateMutability": "payable",
      "type": "function",
      "payable": true
    },
    {
      "inputs": [
        {
          "internalType": "bytes4",
          "name": "interfaceId",
          "type": "bytes4"
        }
      ],
      "name": "supportsInterface",
      "outputs": [
        {
          "internalType": "bool",
          "name": "",
          "type": "bool"
        }
      ],
      "stateMutability": "view",
      "type": "function",
      "constant": true
    }
  ],
  "bytecode": "0x60806040523480156200001157600080fd5b5060405162003355380380620033558339810160408190526200003491620003b2565b6040805180820182526008815267556e69566572736560c01b6020808301918252835180850190945260048452632aa724ab60e11b90840152815191929162000080916000916200030c565b508051620000969060019060208401906200030c565b505050620000b3620000ad620000de60201b60201c565b620000e2565b600a805460ff60a01b19169055620000cb8162000134565b620000d760016200019c565b506200057e565b3390565b600a80546001600160a01b038381166001600160a01b0319831681179093556040519116919082907f8be0079c531659141344cd1fd0a4f28419497f9722a3daafe3b4186f6b6457e090600090a35050565b6200013e620000de565b6001600160a01b0316620001516200020b565b6001600160a01b031614620001835760405162461bcd60e51b81526004016200017a90620004f6565b60405180910390fd5b80516200019890600c9060208401906200030c565b5050565b620001a6620000de565b6001600160a01b0316620001b96200020b565b6001600160a01b031614620001e25760405162461bcd60e51b81526004016200017a90620004f6565b60018115151415620001fe57620001f86200021a565b62000208565b620002086200029b565b50565b600a546001600160a01b031690565b62000224620002fc565b15620002445760405162461bcd60e51b81526004016200017a90620004cc565b600a805460ff60a01b1916600160a01b1790557f62e78cea01bee320cd4e420270b5ea74000d11b0c9f74754ebdbfc544b05a25862000282620000de565b60405162000291919062000481565b60405180910390a1565b620002a5620002fc565b620002c45760405162461bcd60e51b81526004016200017a9062000495565b600a805460ff60a01b191690557f5db9ee0a495bf2e6ff9c91a7834c1ba4fdd244a5e8aa4e537bd38aeae4b073aa62000282620000de565b600a54600160a01b900460ff1690565b8280546200031a906200052b565b90600052602060002090601f0160209004810192826200033e576000855562000389565b82601f106200035957805160ff191683800117855562000389565b8280016001018555821562000389579182015b82811115620003895782518255916020019190600101906200036c565b50620003979291506200039b565b5090565b5b808211156200039757600081556001016200039c565b60006020808385031215620003c5578182fd5b82516001600160401b0380821115620003dc578384fd5b818501915085601f830112620003f0578384fd5b81518181111562000405576200040562000568565b604051601f8201601f19168101850183811182821017156200042b576200042b62000568565b604052818152838201850188101562000442578586fd5b8592505b8183101562000465578383018501518184018601529184019162000446565b818311156200047657858583830101525b979650505050505050565b6001600160a01b0391909116815260200190565b60208082526014908201527f5061757361626c653a206e6f7420706175736564000000000000000000000000604082015260600190565b60208082526010908201526f14185d5cd8589b194e881c185d5cd95960821b604082015260600190565b6020808252818101527f4f776e61626c653a2063616c6c6572206973206e6f7420746865206f776e6572604082015260600190565b6002810460018216806200054057607f821691505b602082108114156200056257634e487b7160e01b600052602260045260246000fd5b50919050565b634e487b7160e01b600052604160045260246000fd5b612dc7806200058e6000396000f3fe6080604052600436106102a05760003560e01c80635c975abb1161016e57806395d89b41116100cb578063d547cfb71161007f578063e985e9c511610064578063e985e9c514610683578063f2fde38b146106a3578063fc9410021461059a576102a0565b8063d547cfb71461066e578063e927fc5c1461042b576102a0565b8063b88d4fde116100b0578063b88d4fde1461060e578063ba1db1831461062e578063c87b56dd1461064e576102a0565b806395d89b41146105d9578063a22cb465146105ee576102a0565b80637d0a346d116101225780638ad5de28116101075780638ad5de281461059a5780638d859f3e146105af5780638da5cb5b146105c4576102a0565b80637d0a346d1461057f578063853828b614610592576102a0565b80636a627842116101535780636a6278421461053757806370a082311461054a578063715018a61461056a576102a0565b80635c975abb146105025780636352211e14610517576102a0565b806326a49e371161021c57806342966c68116101d05780634f6ccce7116101b55780634f6ccce7146104ad57806355f804b3146104cd57806359a7715a146104ed576102a0565b806342966c6814610460578063438b630014610480576102a0565b80633502a716116102015780633502a716146104165780633ad10ef61461042b57806342842e0e14610440576102a0565b806326a49e37146103d65780632f745c59146103f6576102a0565b806306fdde0311610273578063095ea7b311610258578063095ea7b31461037457806318160ddd1461039457806323b872dd146103b6576102a0565b806306fdde0314610325578063081812fc14610347576102a0565b806301ffc9a7146102a557806302329a29146102db57806305510ab5146102fd578063067a1b241461031d575b600080fd5b3480156102b157600080fd5b506102c56102c036600461223b565b6106c3565b6040516102d291906123c3565b60405180910390f35b3480156102e757600080fd5b506102fb6102f6366004612221565b6106d6565b005b34801561030957600080fd5b506102c5610318366004612021565b610741565b6102c56107b4565b34801561033157600080fd5b5061033a610811565b6040516102d291906123ce565b34801561035357600080fd5b506103676103623660046122b9565b6108a3565b6040516102d2919061232f565b34801561038057600080fd5b506102fb61038f36600461214a565b6108e6565b3480156103a057600080fd5b506103a961097e565b6040516102d29190612c0e565b3480156103c257600080fd5b506102fb6103d136600461206d565b610984565b3480156103e257600080fd5b506103a96103f13660046122b9565b6109bc565b34801561040257600080fd5b506103a961041136600461214a565b6109cf565b34801561042257600080fd5b506103a9610a21565b34801561043757600080fd5b50610367610a27565b34801561044c57600080fd5b506102fb61045b36600461206d565b610a3f565b34801561046c57600080fd5b506102fb61047b3660046122b9565b610a5a565b34801561048c57600080fd5b506104a061049b366004612021565b610a8a565b6040516102d2919061237f565b3480156104b957600080fd5b506103a96104c83660046122b9565b610b48565b3480156104d957600080fd5b506102fb6104e8366004612273565b610ba3565b3480156104f957600080fd5b506103a9610bf9565b34801561050e57600080fd5b506102c5610c08565b34801561052357600080fd5b506103676105323660046122b9565b610c18565b6102fb610545366004612021565b610c4d565b34801561055657600080fd5b506103a9610565366004612021565b610d75565b34801561057657600080fd5b506102fb610db9565b6102fb61058d366004612173565b610e04565b6102fb610e56565b3480156105a657600080fd5b506103a9610ef1565b3480156105bb57600080fd5b506103a9610ef6565b3480156105d057600080fd5b50610367610f01565b3480156105e557600080fd5b5061033a610f10565b3480156105fa57600080fd5b506102fb610609366004612121565b610f1f565b34801561061a57600080fd5b506102fb6106293660046120a8565b610f31565b34801561063a57600080fd5b506103676106493660046122b9565b610f70565b34801561065a57600080fd5b5061033a6106693660046122b9565b610f9a565b34801561067a57600080fd5b5061033a61101d565b34801561068f57600080fd5b506102c561069e36600461203b565b6110ab565b3480156106af57600080fd5b506102fb6106be366004612021565b6110d9565b60006106ce82611147565b90505b919050565b6106de611185565b6001600160a01b03166106ef610f01565b6001600160a01b03161461071e5760405162461bcd60e51b81526004016107159061293d565b60405180910390fd5b6001811515141561073657610731611189565b61073e565b61073e611201565b50565b6000805b600d548110156107ab57600d818154811061077057634e487b7160e01b600052603260045260246000fd5b6000918252602090912001546001600160a01b03848116911614156107995760019150506106d1565b806107a381612d0a565b915050610745565b50600092915050565b60006107be611185565b6001600160a01b03166107cf610f01565b6001600160a01b0316146107f55760405162461bcd60e51b81526004016107159061293d565b6060805161080890600d90608090611eb4565b50600191505090565b60606000805461082090612ccf565b80601f016020809104026020016040519081016040528092919081815260200182805461084c90612ccf565b80156108995780601f1061086e57610100808354040283529160200191610899565b820191906000526020600020905b81548152906001019060200180831161087c57829003601f168201915b5050505050905090565b60006108ae8261125b565b6108ca5760405162461bcd60e51b8152600401610715906128f1565b506000908152600460205260409020546001600160a01b031690565b60006108f182610c18565b9050806001600160a01b0316836001600160a01b031614156109255760405162461bcd60e51b815260040161071590612a63565b806001600160a01b0316610937611185565b6001600160a01b0316148061095357506109538161069e611185565b61096f5760405162461bcd60e51b81526004016107159061276e565b6109798383611278565b505050565b60085490565b61099561098f611185565b826112e6565b6109b15760405162461bcd60e51b815260040161071590612af7565b61097983838361136b565b60006106ce66b1a2bc2ec5000083611498565b60006109da83610d75565b82106109f85760405162461bcd60e51b8152600401610715906124d2565b506001600160a01b03919091166000908152600660209081526040808320938352929052205490565b6103e881565b738a1eaa7f43d44d06ac1b7677fd6b979538ebc65281565b61097983838360405180602001604052806000815250610f31565b610a6561098f611185565b610a815760405162461bcd60e51b815260040161071590612bb1565b61073e816114a4565b60606000610a9783610d75565b905060008167ffffffffffffffff811115610ac257634e487b7160e01b600052604160045260246000fd5b604051908082528060200260200182016040528015610aeb578160200160208202803683370190505b50905060005b82811015610b4057610b0385826109cf565b828281518110610b2357634e487b7160e01b600052603260045260246000fd5b602090810291909101015280610b3881612d0a565b915050610af1565b509392505050565b6000610b5261097e565b8210610b705760405162461bcd60e51b815260040161071590612b54565b60088281548110610b9157634e487b7160e01b600052603260045260246000fd5b90600052602060002001549050919050565b610bab611185565b6001600160a01b0316610bbc610f01565b6001600160a01b031614610be25760405162461bcd60e51b81526004016107159061293d565b8051610bf590600c906020840190611f19565b5050565b6000610c0361154b565b905090565b600a54600160a01b900460ff1690565b6000818152600260205260408120546001600160a01b0316806106ce5760405162461bcd60e51b815260040161071590612828565b610c58610318611185565b610c745760405162461bcd60e51b815260040161071590612475565b6103e8610c7f61154b565b1115610c9d5760405162461bcd60e51b8152600401610715906128ba565b610ca5610f01565b6001600160a01b0316610cb6611185565b6001600160a01b031614610ce957610ccc610c08565b15610ce95760405162461bcd60e51b815260040161071590612737565b6000610cf361154b565b90506103e8610d03826001612c41565b1115610d215760405162461bcd60e51b8152600401610715906126b4565b6103e8811115610d435760405162461bcd60e51b8152600401610715906128ba565b610d4d60016109bc565b341015610d6c5760405162461bcd60e51b815260040161071590612a2c565b610bf582611557565b60006001600160a01b038216610d9d5760405162461bcd60e51b8152600401610715906127cb565b506001600160a01b031660009081526003602052604090205490565b610dc1611185565b6001600160a01b0316610dd2610f01565b6001600160a01b031614610df85760405162461bcd60e51b81526004016107159061293d565b610e0260006115a6565b565b610e0c611185565b6001600160a01b0316610e1d610f01565b6001600160a01b031614610e435760405162461bcd60e51b81526004016107159061293d565b8051610bf590600d906020840190611eb4565b610e5e611185565b6001600160a01b0316610e6f610f01565b6001600160a01b031614610e955760405162461bcd60e51b81526004016107159061293d565b4780610ea057600080fd5b610ed3738a1eaa7f43d44d06ac1b7677fd6b979538ebc652610ece6064610ec8856023611498565b906115f8565b611604565b61073e738a1eaa7f43d44d06ac1b7677fd6b979538ebc65247611604565b601481565b66b1a2bc2ec5000081565b600a546001600160a01b031690565b60606001805461082090612ccf565b610bf5610f2a611185565b8383611680565b610f42610f3c611185565b836112e6565b610f5e5760405162461bcd60e51b815260040161071590612af7565b610f6a84848484611723565b50505050565b600d8181548110610f8057600080fd5b6000918252602090912001546001600160a01b0316905081565b6060610fa58261125b565b610fc15760405162461bcd60e51b8152600401610715906129cf565b6000610fcb611756565b90506000815111610feb5760405180602001604052806000815250611016565b80610ff584611765565b6040516020016110069291906122fd565b6040516020818303038152906040525b9392505050565b600c805461102a90612ccf565b80601f016020809104026020016040519081016040528092919081815260200182805461105690612ccf565b80156110a35780601f10611078576101008083540402835291602001916110a3565b820191906000526020600020905b81548152906001019060200180831161108657829003601f168201915b505050505081565b6001600160a01b03918216600090815260056020908152604080832093909416825291909152205460ff1690565b6110e1611185565b6001600160a01b03166110f2610f01565b6001600160a01b0316146111185760405162461bcd60e51b81526004016107159061293d565b6001600160a01b03811661113e5760405162461bcd60e51b81526004016107159061258c565b61073e816115a6565b60006001600160e01b031982167f780e9d630000000000000000000000000000000000000000000000000000000014806106ce57506106ce826118b4565b3390565b611191610c08565b156111ae5760405162461bcd60e51b815260040161071590612737565b600a805460ff60a01b1916600160a01b1790557f62e78cea01bee320cd4e420270b5ea74000d11b0c9f74754ebdbfc544b05a2586111ea611185565b6040516111f7919061232f565b60405180910390a1565b611209610c08565b6112255760405162461bcd60e51b81526004016107159061243e565b600a805460ff60a01b191690557f5db9ee0a495bf2e6ff9c91a7834c1ba4fdd244a5e8aa4e537bd38aeae4b073aa6111ea611185565b6000908152600260205260409020546001600160a01b0316151590565b600081815260046020526040902080546001600160a01b0319166001600160a01b03841690811790915581906112ad82610c18565b6001600160a01b03167f8c5be1e5ebec7d5bd14f71427d1e84f3dd0314c0f7b2291e5b200ac8c7c3b92560405160405180910390a45050565b60006112f18261125b565b61130d5760405162461bcd60e51b8152600401610715906126eb565b600061131883610c18565b9050806001600160a01b0316846001600160a01b031614806113535750836001600160a01b0316611348846108a3565b6001600160a01b0316145b80611363575061136381856110ab565b949350505050565b826001600160a01b031661137e82610c18565b6001600160a01b0316146113a45760405162461bcd60e51b815260040161071590612972565b6001600160a01b0382166113ca5760405162461bcd60e51b815260040161071590612620565b6113d5838383611926565b6113e0600082611278565b6001600160a01b0383166000908152600360205260408120805460019290611409908490612c8c565b90915550506001600160a01b0382166000908152600360205260408120805460019290611437908490612c41565b909155505060008181526002602052604080822080546001600160a01b0319166001600160a01b0386811691821790925591518493918716917fddf252ad1be2c89b69c2b068fc378daa952ba7f163c4a11628f55a4df523b3ef91a4505050565b60006110168284612c6d565b60006114af82610c18565b90506114bd81600084611926565b6114c8600083611278565b6001600160a01b03811660009081526003602052604081208054600192906114f1908490612c8c565b909155505060008281526002602052604080822080546001600160a01b0319169055518391906001600160a01b038416907fddf252ad1be2c89b69c2b068fc378daa952ba7f163c4a11628f55a4df523b3ef908390a45050565b6000610c03600b611931565b600061156161154b565b905061156d600b611935565b611577828261193e565b60405181907f5cf1bc99e6049c04449220401f3c8b4e352b4dff03290368d45d6a1897eb85f090600090a25050565b600a80546001600160a01b038381166001600160a01b0319831681179093556040519116919082907f8be0079c531659141344cd1fd0a4f28419497f9722a3daafe3b4186f6b6457e090600090a35050565b60006110168284612c59565b6000826001600160a01b03168260405161161d9061232c565b60006040518083038185875af1925050503d806000811461165a576040519150601f19603f3d011682016040523d82523d6000602084013e61165f565b606091505b50509050806109795760405162461bcd60e51b815260040161071590612ac0565b816001600160a01b0316836001600160a01b031614156116b25760405162461bcd60e51b81526004016107159061267d565b6001600160a01b0383811660008181526005602090815260408083209487168084529490915290819020805460ff1916851515179055517f17307eab39ab6107e8899845ad3d59bd9653f200f220920489ca2b5937696c31906117169085906123c3565b60405180910390a3505050565b61172e84848461136b565b61173a84848484611958565b610f6a5760405162461bcd60e51b81526004016107159061252f565b6060600c805461082090612ccf565b6060816117a6575060408051808201909152600181527f300000000000000000000000000000000000000000000000000000000000000060208201526106d1565b8160005b81156117d057806117ba81612d0a565b91506117c99050600a83612c59565b91506117aa565b60008167ffffffffffffffff8111156117f957634e487b7160e01b600052604160045260246000fd5b6040519080825280601f01601f191660200182016040528015611823576020820181803683370190505b5090505b841561136357611838600183612c8c565b9150611845600a86612d25565b611850906030612c41565b60f81b81838151811061187357634e487b7160e01b600052603260045260246000fd5b60200101907effffffffffffffffffffffffffffffffffffffffffffffffffffffffffffff1916908160001a9053506118ad600a86612c59565b9450611827565b60006001600160e01b031982167f80ac58cd00000000000000000000000000000000000000000000000000000000148061191757506001600160e01b031982167f5b5e139f00000000000000000000000000000000000000000000000000000000145b806106ce57506106ce82611a8c565b610979838383611abe565b5490565b80546001019055565b610bf5828260405180602001604052806000815250611b15565b600061196c846001600160a01b0316611b48565b15611a8157836001600160a01b031663150b7a02611988611185565b8786866040518563ffffffff1660e01b81526004016119aa9493929190612343565b602060405180830381600087803b1580156119c457600080fd5b505af19250505080156119f4575060408051601f3d908101601f191682019092526119f191810190612257565b60015b611a4e573d808015611a22576040519150601f19603f3d011682016040523d82523d6000602084013e611a27565b606091505b508051611a465760405162461bcd60e51b81526004016107159061252f565b805181602001fd5b6001600160e01b0319167f150b7a0200000000000000000000000000000000000000000000000000000000149050611363565b506001949350505050565b6001600160e01b031981167f01ffc9a70000000000000000000000000000000000000000000000000000000014919050565b611ac9838383611b4e565b611ad1610f01565b6001600160a01b0316611ae2611185565b6001600160a01b03161461097957611af8610c08565b156109795760405162461bcd60e51b8152600401610715906123e1565b611b1f8383611bd7565b611b2c6000848484611958565b6109795760405162461bcd60e51b81526004016107159061252f565b3b151590565b611b59838383610979565b6001600160a01b038316611b7557611b7081611cb6565b611b98565b816001600160a01b0316836001600160a01b031614611b9857611b988382611cfa565b6001600160a01b038216611bb457611baf81611d97565b610979565b826001600160a01b0316826001600160a01b031614610979576109798282611e70565b6001600160a01b038216611bfd5760405162461bcd60e51b815260040161071590612885565b611c068161125b565b15611c235760405162461bcd60e51b8152600401610715906125e9565b611c2f60008383611926565b6001600160a01b0382166000908152600360205260408120805460019290611c58908490612c41565b909155505060008181526002602052604080822080546001600160a01b0319166001600160a01b03861690811790915590518392907fddf252ad1be2c89b69c2b068fc378daa952ba7f163c4a11628f55a4df523b3ef908290a45050565b600880546000838152600960205260408120829055600182018355919091527ff3f7a9fe364faab93b216da50a3214154f22a0a2b415b23a84c8169e8b636ee30155565b60006001611d0784610d75565b611d119190612c8c565b600083815260076020526040902054909150808214611d64576001600160a01b03841660009081526006602090815260408083208584528252808320548484528184208190558352600790915290208190555b5060009182526007602090815260408084208490556001600160a01b039094168352600681528383209183525290812055565b600854600090611da990600190612c8c565b60008381526009602052604081205460088054939450909284908110611ddf57634e487b7160e01b600052603260045260246000fd5b906000526020600020015490508060088381548110611e0e57634e487b7160e01b600052603260045260246000fd5b6000918252602080832090910192909255828152600990915260408082208490558582528120556008805480611e5457634e487b7160e01b600052603160045260246000fd5b6001900381819060005260206000200160009055905550505050565b6000611e7b83610d75565b6001600160a01b039093166000908152600660209081526040808320868452825280832085905593825260079052919091209190915550565b828054828255906000526020600020908101928215611f09579160200282015b82811115611f0957825182546001600160a01b0319166001600160a01b03909116178255602090920191600190910190611ed4565b50611f15929150611f8d565b5090565b828054611f2590612ccf565b90600052602060002090601f016020900481019282611f475760008555611f09565b82601f10611f6057805160ff1916838001178555611f09565b82800160010185558215611f09579182015b82811115611f09578251825591602001919060010190611f72565b5b80821115611f155760008155600101611f8e565b600067ffffffffffffffff831115611fbc57611fbc612d65565b611fcf601f8401601f1916602001612c17565b9050828152838383011115611fe357600080fd5b828260208301376000602084830101529392505050565b80356001600160a01b03811681146106d157600080fd5b803580151581146106d157600080fd5b600060208284031215612032578081fd5b61101682611ffa565b6000806040838503121561204d578081fd5b61205683611ffa565b915061206460208401611ffa565b90509250929050565b600080600060608486031215612081578081fd5b61208a84611ffa565b925061209860208501611ffa565b9150604084013590509250925092565b600080600080608085870312156120bd578081fd5b6120c685611ffa565b93506120d460208601611ffa565b925060408501359150606085013567ffffffffffffffff8111156120f6578182fd5b8501601f81018713612106578182fd5b61211587823560208401611fa2565b91505092959194509250565b60008060408385031215612133578182fd5b61213c83611ffa565b915061206460208401612011565b6000806040838503121561215c578182fd5b61216583611ffa565b946020939093013593505050565b60006020808385031215612185578182fd5b823567ffffffffffffffff8082111561219c578384fd5b818501915085601f8301126121af578384fd5b8135818111156121c1576121c1612d65565b83810291506121d1848301612c17565b8181528481019084860184860187018a10156121eb578788fd5b8795505b838610156122145761220081611ffa565b8352600195909501949186019186016121ef565b5098975050505050505050565b600060208284031215612232578081fd5b61101682612011565b60006020828403121561224c578081fd5b813561101681612d7b565b600060208284031215612268578081fd5b815161101681612d7b565b600060208284031215612284578081fd5b813567ffffffffffffffff81111561229a578182fd5b8201601f810184136122aa578182fd5b61136384823560208401611fa2565b6000602082840312156122ca578081fd5b5035919050565b600081518084526122e9816020860160208601612ca3565b601f01601f19169290920160200192915050565b6000835161230f818460208801612ca3565b835190830190612323818360208801612ca3565b01949350505050565b90565b6001600160a01b0391909116815260200190565b60006001600160a01b0380871683528086166020840152508360408301526080606083015261237560808301846122d1565b9695505050505050565b6020808252825182820181905260009190848201906040850190845b818110156123b75783518352928401929184019160010161239b565b50909695505050505050565b901515815260200190565b60006020825261101660208301846122d1565b6020808252602b908201527f4552433732315061757361626c653a20746f6b656e207472616e73666572207760408201527f68696c6520706175736564000000000000000000000000000000000000000000606082015260800190565b60208082526014908201527f5061757361626c653a206e6f7420706175736564000000000000000000000000604082015260600190565b60208082526029908201527f54686973206164647265737320646f65736e277420696e636c75646520696e2060408201527f77686974656c6973740000000000000000000000000000000000000000000000606082015260800190565b6020808252602b908201527f455243373231456e756d657261626c653a206f776e657220696e646578206f7560408201527f74206f6620626f756e6473000000000000000000000000000000000000000000606082015260800190565b60208082526032908201527f4552433732313a207472616e7366657220746f206e6f6e20455243373231526560408201527f63656976657220696d706c656d656e7465720000000000000000000000000000606082015260800190565b60208082526026908201527f4f776e61626c653a206e6577206f776e657220697320746865207a65726f206160408201527f6464726573730000000000000000000000000000000000000000000000000000606082015260800190565b6020808252601c908201527f4552433732313a20746f6b656e20616c7265616479206d696e74656400000000604082015260600190565b60208082526024908201527f4552433732313a207472616e7366657220746f20746865207a65726f2061646460408201527f7265737300000000000000000000000000000000000000000000000000000000606082015260800190565b60208082526019908201527f4552433732313a20617070726f766520746f2063616c6c657200000000000000604082015260600190565b60208082526009908201527f4d6178206c696d69740000000000000000000000000000000000000000000000604082015260600190565b6020808252602c908201527f4552433732313a206f70657261746f7220717565727920666f72206e6f6e657860408201526b34b9ba32b73a103a37b5b2b760a11b606082015260800190565b60208082526010908201527f5061757361626c653a2070617573656400000000000000000000000000000000604082015260600190565b60208082526038908201527f4552433732313a20617070726f76652063616c6c6572206973206e6f74206f7760408201527f6e6572206e6f7220617070726f76656420666f7220616c6c0000000000000000606082015260800190565b6020808252602a908201527f4552433732313a2062616c616e636520717565727920666f7220746865207a6560408201527f726f206164647265737300000000000000000000000000000000000000000000606082015260800190565b60208082526029908201527f4552433732313a206f776e657220717565727920666f72206e6f6e657869737460408201527f656e7420746f6b656e0000000000000000000000000000000000000000000000606082015260800190565b6020808252818101527f4552433732313a206d696e7420746f20746865207a65726f2061646472657373604082015260600190565b60208082526008908201527f53616c6520656e64000000000000000000000000000000000000000000000000604082015260600190565b6020808252602c908201527f4552433732313a20617070726f76656420717565727920666f72206e6f6e657860408201526b34b9ba32b73a103a37b5b2b760a11b606082015260800190565b6020808252818101527f4f776e61626c653a2063616c6c6572206973206e6f7420746865206f776e6572604082015260600190565b60208082526029908201527f4552433732313a207472616e73666572206f6620746f6b656e2074686174206960408201527f73206e6f74206f776e0000000000000000000000000000000000000000000000606082015260800190565b6020808252602f908201527f4552433732314d657461646174613a2055524920717565727920666f72206e6f60408201527f6e6578697374656e7420746f6b656e0000000000000000000000000000000000606082015260800190565b60208082526011908201527f56616c75652062656c6f77207072696365000000000000000000000000000000604082015260600190565b60208082526021908201527f4552433732313a20617070726f76616c20746f2063757272656e74206f776e6560408201527f7200000000000000000000000000000000000000000000000000000000000000606082015260800190565b60208082526010908201527f5472616e73666572206661696c65642e00000000000000000000000000000000604082015260600190565b60208082526031908201527f4552433732313a207472616e736665722063616c6c6572206973206e6f74206f60408201527f776e6572206e6f7220617070726f766564000000000000000000000000000000606082015260800190565b6020808252602c908201527f455243373231456e756d657261626c653a20676c6f62616c20696e646578206f60408201527f7574206f6620626f756e64730000000000000000000000000000000000000000606082015260800190565b60208082526030908201527f4552433732314275726e61626c653a2063616c6c6572206973206e6f74206f7760408201527f6e6572206e6f7220617070726f76656400000000000000000000000000000000606082015260800190565b90815260200190565b60405181810167ffffffffffffffff81118282101715612c3957612c39612d65565b604052919050565b60008219821115612c5457612c54612d39565b500190565b600082612c6857612c68612d4f565b500490565b6000816000190483118215151615612c8757612c87612d39565b500290565b600082821015612c9e57612c9e612d39565b500390565b60005b83811015612cbe578181015183820152602001612ca6565b83811115610f6a5750506000910152565b600281046001821680612ce357607f821691505b60208210811415612d0457634e487b7160e01b600052602260045260246000fd5b50919050565b6000600019821415612d1e57612d1e612d39565b5060010190565b600082612d3457612d34612d4f565b500690565b634e487b7160e01b600052601160045260246000fd5b634e487b7160e01b600052601260045260246000fd5b634e487b7160e01b600052604160045260246000fd5b6001600160e01b03198116811461073e57600080fdfea2646970667358221220a077fa3f830985cb8c31709d0ed823c90328fb832a46ea0066deadc647d9683264736f6c63430008000033",
  "immutableReferences": {},
  "source": "// SPDX-License-Identifier: MIT\r\npragma solidity ^0.8.0;\r\n\r\nimport \"@openzeppelin/contracts/token/ERC721/ERC721.sol\";\r\nimport \"@openzeppelin/contracts/token/ERC721/extensions/ERC721Enumerable.sol\";\r\nimport \"@openzeppelin/contracts/token/ERC721/extensions/ERC721Burnable.sol\";\r\nimport \"@openzeppelin/contracts/access/Ownable.sol\";\r\nimport \"@openzeppelin/contracts/utils/math/SafeMath.sol\";\r\nimport \"@openzeppelin/contracts/utils/Counters.sol\";\r\nimport \"./ERC721Pausable.sol\";\r\ncontract UniVerse is ERC721Enumerable, Ownable, ERC721Burnable, ERC721Pausable {\r\n    using SafeMath for uint256;\r\n    using Counters for Counters.Counter;\r\n\r\n    Counters.Counter private _tokenIdTracker;\r\n\r\n    uint256 public constant MAX_ELEMENTS = 1000;\r\n    uint256 public constant PRICE = 5 * 10**16; //TODO: update price\r\n    uint256 public constant MAX_BY_MINT = 20;\r\n    uint256 public constant MAX_BY_OWNER = 20;\r\n    address public constant creatorAddress = 0x8A1eAA7f43D44D06ac1b7677FD6B979538EBc652; // TODO: update\r\n    address public constant devAddress = 0x8A1eAA7f43D44D06ac1b7677FD6B979538EBc652; // TODO: update\r\n    string public baseTokenURI;\r\n    address[] public _whitedList;\r\n\r\n    event CreateUniverse(uint256 indexed id);\r\n    constructor(string memory baseURI) ERC721(\"UniVerse\", \"UNIV\") {\r\n        setBaseURI(baseURI);\r\n        pause(true);\r\n    }\r\n\r\n    modifier saleIsOpen {\r\n        require(_totalSupply() <= MAX_ELEMENTS, \"Sale end\");\r\n        if (_msgSender() != owner()) {\r\n            require(!paused(), \"Pausable: paused\");\r\n        }\r\n        _;\r\n    }\r\n\r\n    modifier onlyWhitedListMemeber {\r\n        require(isWhitedList(_msgSender()), \"This address doesn't include in whitelist\");\r\n        _;\r\n    }\r\n\r\n    function isWhitedList(address someone) public view returns(bool) {\r\n        uint256 initialization;\r\n        for (initialization = 0; initialization < _whitedList.length; initialization++){\r\n            if (someone == _whitedList[initialization]){\r\n                return true;\r\n            }\r\n        }\r\n        return false;\r\n    }\r\n\r\n    function setWhitedList(address[] memory row) public payable onlyOwner {\r\n        _whitedList = row;\r\n    }\r\n\r\n    function removeWhiteList() public payable onlyOwner returns (bool) {\r\n        address[] memory removeList;\r\n        _whitedList = removeList;\r\n        return true;\r\n    }\r\n\r\n    function getWhitedList() internal view returns (address[] memory) {\r\n        return _whitedList;\r\n    }\r\n\r\n    function _totalSupply() internal view returns (uint) {\r\n        return _tokenIdTracker.current();\r\n    }\r\n    function totalMint() public view returns (uint256) {\r\n        return _totalSupply();\r\n    }\r\n    function mint(address _to) public payable onlyWhitedListMemeber saleIsOpen {\r\n        uint256 total = _totalSupply();\r\n        require(total + 1 <= MAX_ELEMENTS, \"Max limit\");\r\n        require(total <= MAX_ELEMENTS, \"Sale end\");\r\n        require(msg.value >= price(1), \"Value below price\");\r\n        // uint256 ownedNftCount = balanceOf(_to);\r\n        // require(ownedNftCount + _count <= MAX_BY_OWNER, \"Can't have more than 20 NFTs\");\r\n        _mintAnElement(_to);\r\n    }\r\n    function _mintAnElement(address _to) private {\r\n        uint id = _totalSupply();\r\n        _tokenIdTracker.increment();\r\n        _safeMint(_to, id);\r\n        emit CreateUniverse(id);\r\n    }\r\n    function price(uint256 _count) public pure returns (uint256) {\r\n        return PRICE.mul(_count);\r\n    }\r\n\r\n    function _baseURI() internal view virtual override returns (string memory) {\r\n        return baseTokenURI;\r\n    }\r\n\r\n    function setBaseURI(string memory baseURI) public onlyOwner {\r\n        baseTokenURI = baseURI;\r\n    }\r\n\r\n    function walletOfOwner(address _owner) external view returns (uint256[] memory) {\r\n        uint256 tokenCount = balanceOf(_owner);\r\n\r\n        uint256[] memory tokensId = new uint256[](tokenCount);\r\n        for (uint256 i = 0; i < tokenCount; i++) {\r\n            tokensId[i] = tokenOfOwnerByIndex(_owner, i);\r\n        }\r\n\r\n        return tokensId;\r\n    }\r\n\r\n    function pause(bool val) public onlyOwner {\r\n        if (val == true) {\r\n            _pause();\r\n            return;\r\n        }\r\n        _unpause();\r\n    }\r\n\r\n    function withdrawAll() public payable onlyOwner {\r\n        uint256 balance = address(this).balance;\r\n        require(balance > 0);\r\n        _widthdraw(devAddress, balance.mul(35).div(100));\r\n        _widthdraw(creatorAddress, address(this).balance);\r\n    }\r\n\r\n    function _widthdraw(address _address, uint256 _amount) private {\r\n        (bool success, ) = _address.call{value: _amount}(\"\");\r\n        require(success, \"Transfer failed.\");\r\n    }\r\n\r\n    function _beforeTokenTransfer(\r\n        address from,\r\n        address to,\r\n        uint256 tokenId\r\n    ) internal virtual override(ERC721, ERC721Enumerable, ERC721Pausable) {\r\n        super._beforeTokenTransfer(from, to, tokenId);\r\n    }\r\n\r\n    function supportsInterface(bytes4 interfaceId) public view virtual override(ERC721, ERC721Enumerable) returns (bool) {\r\n        return super.supportsInterface(interfaceId);\r\n    }\r\n    \r\n}\r\n",
  "sourcePath": "/home/ubuntu/jhi/nft-token/nft-token/contracts/UniVerse.sol",
  "compiler": {
    "name": "solc",
    "version": "0.8.0+commit.c7dfd78e.Emscripten.clang"
  },
  "schemaVersion": "3.4.3",
  "updatedAt": "2021-12-04T13:46:39.165Z",
  "networkType": "ethereum",
  "devdoc": {
    "kind": "dev",
    "methods": {
      "approve(address,uint256)": {
        "details": "See {IERC721-approve}."
      },
      "balanceOf(address)": {
        "details": "See {IERC721-balanceOf}."
      },
      "burn(uint256)": {
        "details": "Burns `tokenId`. See {ERC721-_burn}. Requirements: - The caller must own `tokenId` or be an approved operator."
      },
      "getApproved(uint256)": {
        "details": "See {IERC721-getApproved}."
      },
      "isApprovedForAll(address,address)": {
        "details": "See {IERC721-isApprovedForAll}."
      },
      "name()": {
        "details": "See {IERC721Metadata-name}."
      },
      "owner()": {
        "details": "Returns the address of the current owner."
      },
      "ownerOf(uint256)": {
        "details": "See {IERC721-ownerOf}."
      },
      "paused()": {
        "details": "Returns true if the contract is paused, and false otherwise."
      },
      "renounceOwnership()": {
        "details": "Leaves the contract without owner. It will not be possible to call `onlyOwner` functions anymore. Can only be called by the current owner. NOTE: Renouncing ownership will leave the contract without an owner, thereby removing any functionality that is only available to the owner."
      },
      "safeTransferFrom(address,address,uint256)": {
        "details": "See {IERC721-safeTransferFrom}."
      },
      "safeTransferFrom(address,address,uint256,bytes)": {
        "details": "See {IERC721-safeTransferFrom}."
      },
      "setApprovalForAll(address,bool)": {
        "details": "See {IERC721-setApprovalForAll}."
      },
      "symbol()": {
        "details": "See {IERC721Metadata-symbol}."
      },
      "tokenByIndex(uint256)": {
        "details": "See {IERC721Enumerable-tokenByIndex}."
      },
      "tokenOfOwnerByIndex(address,uint256)": {
        "details": "See {IERC721Enumerable-tokenOfOwnerByIndex}."
      },
      "tokenURI(uint256)": {
        "details": "See {IERC721Metadata-tokenURI}."
      },
      "totalSupply()": {
        "details": "See {IERC721Enumerable-totalSupply}."
      },
      "transferFrom(address,address,uint256)": {
        "details": "See {IERC721-transferFrom}."
      },
      "transferOwnership(address)": {
        "details": "Transfers ownership of the contract to a new account (`newOwner`). Can only be called by the current owner."
      }
    },
    "version": 1
  },
  "userdoc": {
    "kind": "user",
    "methods": {},
    "version": 1
  }
}